:020000040800F2
:1000000098070020A1010008132C000837270008DA
:10001000112C000899120008CD2E000800000000E5
:10002000000000000000000000000000172C000885
:10003000B512000800000000152C0008192C00085B
:10004000BB010008BB010008BB010008BB010008A0
:10005000BB010008BB010008BB010008BB01000890
:10006000BB010008BB010008BB010008BB01000880
:10007000BB010008BB010008BB010008BB01000870
:100080009D120008A9120008BB010008BB0100086E
:10009000BB010008BB010008BB010008BB01000850
:1000A000BB010008BB010008BB010008BB01000840
:1000B000BB010008BB010008BB010008BB01000830
:1000C000BB010008BB010008BB010008BB01000820
:1000D000BB010008C12E0008BB010008BB010008DD
:1000E000BB010008BB010008BB01000800F002F8DA
:1000F00000F047F80AA090E8000C82448344AAF17B
:100100000107DA4501D100F03CF8AFF2090EBAE878
:100110000F0013F0010F18BFFB1A43F0010318473B
:100120002834000048340000103A24BF78C878C151
:10013000FAD8520724BF30C830C144BF04680C60ED
:10014000704700000023002400250026103A28BF35
:1001500078C1FBD8520728BF30C148BF0B60704739
:10016000662903F02081002070471FB500F0F4FAE3
:1001700004000020002102F011FFE0601FBD10B557
:1001800010BD00F0E5FB1146FFF7EFFF02F0C4FEE3
:1001900000F003FC03B4FFF7F2FF03BC00F044FCE3
:1001A0000948804709480047FEE7FEE7FEE7FEE70B
:1001B000FEE7FEE7FEE7FEE7FEE7FEE70448054947
:1001C000054A064B704700006D2C0008ED00000842
:1001D0009801002098070020980300209803002031
:1001E0000FB41CB5074B06AA7B44694600900598DE
:1001F00000F099FA0020694600F0A8FA1CBC5DF8EE
:1002000014FB0000610500002DE9F0410E46044694
:10021000002020622046E168884730B3252805D0B9
:10022000D4E901219047206A401CF2E7E1682046AA
:1002300000278847050018D0A5F14100192802D8E9
:1002400020354FF400673246294620462760FFF7E5
:1002500087FF40B1012804D0F61D26F007060836B6
:10026000D8E7361DD6E72846DAE7206ABDE8F081F0
:1002700010B5431C02E010F8011B71B18107FAD1DF
:100280004FF0013202C88C1A8C4314EAC211F9D023
:10029000C01A0A0603D0C01E10BDC01A10BD0A0441
:1002A00001D0801E10BD0902FCD0401E10BD4FF0D1
:1002B000000200B5134694469646203922BFA0E8B6
:1002C0000C50A0E80C50B1F12001BFF4F7AF0907C2
:1002D00028BFA0E80C5048BF0CC05DF804EB8900B3
:1002E00028BF40F8042B08BF704748BF20F8022BF6
:1002F00011F0804F18BF00F8012B7047704770470E
:10030000704770472DE9FF4F0C461E464FF0FF37F0
:100310008BB0D2E90001DDF860800A908A46C1F313
:100320000A5505B93D46002108464FF00000BAF1D4
:10033000000F00F4400005DA00EB80004FF44001AC
:1003400001EA50004FEA9059B9F1010F00DDB946BA
:100350000A9850EA4A000ED044F61050A5F2FF3534
:1003600045432F14B8F1000F1ED07542291E1EDD23
:10037000C9F100021CE0B8F1010F4FF0000001D0FC
:10038000302103E0F24305E02154401CB042FBDB86
:1003900030460022002121540B99C1F80880C1E9A0
:1003A00000200FB0BDE8F08FBD1B6D1CDEE74A4694
:1003B00000DA694206A800F059FA06AB93E8070094
:1003C00003AB83E8070050460A9900F034FB8DE840
:1003D0000700A0F500501F3800900398002D09DD9C
:1003E00042F21F014A46084403A90390684600F000
:1003F00093FD08E0A0F500504A461F3803A903907A
:10040000684600F09DFD8DE807000004000C03D055
:100410004FF0FF30410800E01046B8F1000F03D064
:100420000022009215461EE0751E05D400F098F9D2
:10043000303262556D1EF9D5B3460122084302D011
:1004400000227F1C04E02078302801D100227F1E8A
:10045000002A099786D01DE0112D07DA00F080F9F7
:10046000303262556D1C50EA0102F5D1084302D0CA
:100470000098C8B10EE00021681E05E0235C625CB4
:1004800063542254401E491C8142F7DBAB46A81B33
:10049000401E0990002004F80B000B98099AC0F840
:1004A0000880C0E9002B7CE711264FF0000859E7CF
:1004B0002DE9F04F88460446D21D22F0070191B085
:1004C000D1E90001CDE90A0102F001FD02460B98D5
:1004D000C00F01D02D2007E02068810701D52B2017
:1004E00002E0202101EAC000032A099001D0072A76
:1004F00005DB03464146204600F078F90BE1207801
:10050000800601D5E06900E00620B8F1650F81465C
:1005100006D0B8F1660F18D0B8F1670F70D131E08E
:100520000020B9F1110F009001DB112301E009F166
:1005300001030AAA01A90CA8FFF7E4FEDDE90C708B
:10054000002609F10105834647E001204B46009053
:100550004FF000470AAA01A90CA8FFF7D3FEDDE976
:100560000DB00C995D46002610B909F101000D1877
:10057000B9EB050003D4C0F1FF3609F10105A5EB85
:1005800009002BE0B9F1010F01DA4FF00109002059
:10059000B9F1110F0090484601DD112300E0034638
:1005A0000AAA01A90CA8FFF7ADFEDDE90C704D46C3
:1005B00000268346207800070AD4AB4500DA5D4662
:1005C00001A8012D04DD411911F8011C302907D0C3
:1005D0004F4502DA17F1040F04DA012082460FE0DA
:1005E0006D1EEEE7002F02DCED1B3E4403E0781C9D
:1005F000A84200DD7D1CB81B00F1010A4FF0004746
:100600002078000703D4AA4501DB4FF0FF3A002110
:10061000B7F1004F0DF143088DF8431024D00220AC
:100620002B23002F01DA7F422D230A21021EA0F185
:10063000010000DC5FB197FBF1FC97FBF1F201FBDD
:100640001C7C17460CF1300C08F801CDEEE7A8F140
:10065000010003702188090501D5452100E06521CD
:10066000A0F1010800F8011C09980FA9A1EB0807E7
:10067000FF1D00B10120411901EBEA70A169384466
:10068000081A401EA0612078C00602D42046AFF3AD
:100690000080099828B1D4E901219047206A401CC4
:1006A00020622078C00622D52046AFF300801EE0ED
:1006B000002E04DBB34502DD01A8805D00E03020A0
:1006C000D4E901219047206A401C2062761CAAF1DF
:1006D00001005FEA000A0AD100F03EF8C068016834
:1006E000405CD4E901219047206A401C2062281E0A
:1006F000A5F10105DCDC07E0D4E9012118F8010BC4
:100700009047206A401C2062381EA7F10107F3DCE5
:100710002046AFF30080032011B043E601694A1C74
:1007200002610878704700B58FB0CDE90131002132
:10073000059105497944CDE9031011466846FFF754
:1007400063FD0FB000BD0000E5FFFFFF0A6802F87F
:10075000010B0A60704700000048704754010020F8
:1007600030B5B0F10A024FEA900E71F100034EEA83
:10077000817EB0EB0E0061EB91014FEA101E4EEA54
:10078000017E10EB0E0041EB11114FEA102E4EEAE4
:10079000016E10EB0E0041EB11214FEA104E4EEAB4
:1007A000014E10EB0E0041EB1141401841F10001E8
:1007B0004FEAD00040EA41704FEAD10110EB8005CA
:1007C0004FEA810444EA907444EB01046D1944EB50
:1007D0000404521BA3414FF0000348BF0A3200D566
:1007E00030BD401C41F1000130BD00002DE9F04159
:1007F0001F46044603260168072A01F4006004DB53
:1008000008B116A505E016A503E008B115A500E09E
:1008100015A521F010002060A069C01EA0610FB1D5
:10082000401EA0612046AFF300804FB1D4E9012102
:1008300038469047206A401C2062C01C206206E0B7
:10084000206AFAE7D4E9012115F8010B9047761EDA
:10085000F8D22046AFF30080BDE8F0814E414E0053
:100860006E616E00494E4600696E66002DE9F047E4
:10087000814616468AB0334878440DC88DE80D008D
:1008800030487844801C03AC0DC884E80D0041F664
:100890009B300844372190FBF1F290FBF1F5A5F174
:1008A000800501FB12041B3C02D56442012000E0DC
:1008B0000020DFF890A080460027FA44AAF1BE0A83
:1008C0000DE0E00709D03246684607EB47010AEB26
:1008D000810100F035FB8DE8070064107F1C002CBF
:1008E000EFD1184F7F44AC3F18E0E80714D007EB76
:1008F00004100DF1180A90E80E008AE80E00C06896
:10090000F04201D198190890324606A903A800F0D8
:1009100017FB03AB83E807006D10641C002DE4D1C6
:1009200032466946B8F1000F03A802D000F0F4FA8D
:1009300001E000F005FBC9E90001C9F808200AB090
:10094000BDE8F087B42C0000004870473401002057
:100950007546FFF7F9FFAE4605006946534620F09D
:100960000700854618B020B5FFF728FCBDE82040F9
:100970004FF000064FF000074FF000084FF0000B5B
:1009800021F00701AC46ACE8C009ACE8C009ACE80E
:10099000C009ACE8C0098D4670470446AFF300803B
:1009A0002046FFF7F7FB00004FF0013C50F8042B06
:1009B00051F8043B9A4221D1A2EB0C03934313EA72
:1009C000CC1317D150F8042B51F8043B9A4215D19F
:1009D000A2EB0C03934313EACC130BD150F8042B76
:1009E00051F8043B9A4209D1A2EB0C03934313EA5A
:1009F000CC13DBD04FF00000704700BFD01A01BA13
:100A0000B1FA81F101F0180122FA01F0CB40C1F1F5
:100A10002001DBB2C0B2C01A2CFA01F3D11A914303
:100A200011EAC311E6D1704701491820ABBEFEE7B9
:100A30002600020070475FEA400C08BF91F0000FEB
:100A40004FEA8C234FEAC12243EA51514FEA1C502E
:100A500018BF00F5F0404FEA300018BF41F00041E8
:100A60005FEA6C5C00F02980BCF1FF3F08BF40F0FA
:100A700080407047130C06BF12044FF0100C4FF06B
:100A8000000C130E04BF12020CF1080C130F04BF6C
:100A900012010CF1040C930F04BF92000CF1020C34
:100AA000D30F04BF52000CF1010C11464FF00002AD
:100AB000A0F11F00A0EB0C00704711F0004F08BF21
:100AC000704731F000413FF4D5AF0B0C06BF09046D
:100AD0004FF0100C4FF0000C0B0E04BF09020CF18C
:100AE000080C0B0F04BF09010CF1040C8B0F04BFA1
:100AF00089000CF1020CCB0F04BF49000CF1010C72
:100B0000CCF12003A0EB0C0022FA03F302FA0CF262
:100B100041EA030100F10100704720F07F4C80EAB8
:100B2000030023F07F47ACEB070303F57C5300F091
:100B3000004003F1FF032DE980494FEA154B09B44A
:100B40004FEA144325EA0B4E24EA03480FF2042629
:100B500006EB132749083E785FEA320203FB06677B
:100B6000C7F5000707FB06F64FEA54374FEAD646AB
:100B700006F1020607FB066CCCF1005C4FEA1C474D
:100B80002CEA074C07FB06F40CFB06F504EB1546B4
:100B90004FEA961634BF00204FF000404FEAD1379D
:100BA00006FB07FC4FEA1C4C0CFB0BF7D21B03FBAC
:100BB0000CF761EB07010CFB0EF7B0EB074072EB93
:100BC00017420CFB08F734BFA2EB0742B2EB074217
:100BD00061EB17414FEA0C444FEA910706FB07FC13
:100BE0004FEA1C4C0CFB0BF7B0EBC74072EB5732D3
:100BF00003FB0CF734BFA2EBC742B2EBC74261EB79
:100C000057310CFB0EF7B0EBC70072EB57720CFBC1
:100C100008F734BFA2EBC702B2EBC70261EB577112
:100C2000039F4FEA816141EA921104EBCC044FEA41
:100C3000D1374FEA826206FB07FC42EA90124FEA84
:100C400080604FEA1C4C0CFB0BF7D21B03FB0CF72C
:100C500061EB07010CFB0EF7B0EB074072EB17429C
:100C60000CFB08F734BFA2EB0742B2EB074261EB83
:100C700017414FEA8C554FEA910704EB9C2406FB81
:100C800007FC4FEA1C4C0CFB0BF7B0EBC74072EBB8
:100C9000573203FB0CF734BFA2EBC742B2EBC7429B
:100CA00061EB57310CFB0EF7B0EBC70072EB5772DC
:100CB0000CFB08F734BFA2EBC702B2EBC70261EB33
:100CC000577115EB4C254FEA816141EA92114FEAC9
:100CD00082624FEAD13742EA901206FB07FC44F1E8
:100CE00000044FEA80604FEA1C4C0CFB0BF7D21B50
:100CF00003FB0CF761EB07010CFB0EF7B0EB0740B1
:100D000072EB17420CFB08F734BFA2EB0742B2EBC1
:100D1000074261EB174115EB1C154FEA813141EA9F
:100D200092414FEA823242EA90424FEA80304FEAE3
:100D30000C7644F1000448EA03434EEA0B484FF0B6
:100D4000000EB2EB080C71EB030724BF6246394674
:100D50004EEB0E0E4FF0000B0018524149414BEB89
:100D60000B0BB2EB080C71EB03077BF1000B24BFFC
:100D7000624639464EEB0E0E4FF0000B0018524102
:100D800049414BEB0B0BB2EB080C71EB03077BF10A
:100D9000000B24BF624639464EEB0E0E51EA0207A5
:100DA00018BF46F0010616EB0E7655F1000254F11D
:100DB000000103D5BDE88901BDE80088BDE88901CF
:100DC000BDE80048B619524141EB0101A3F101030E
:100DD000704780807F7E7D7C7B7A797877767675A8
:100DE0007473727171706F6E6E6D6C6C6B6A6A6920
:100DF0006868676666656464636362616160605FBA
:100E00005F5E5E5D5D5C5C5B5B5A5A595958585732
:100E1000575656555555545453535252525151509A
:100E200050504F4F4F4E4E4D4D4D4C4C4C4B4B4BED
:100E30004A4A4A4949494848484747474746464633
:100E4000454545444444444343434342424242416E
:100E50004141002B26D4770021D01CB54FEA37073B
:100E600003B44FF010004FF010014FF000000FBC22
:100E7000BDE810400BF1010BBBF1010F08BF5FEAA9
:100E8000170722BF12F1010211F101014FF00041D9
:100E900043F1000300F0004043EA00007047F9D33B
:100EA0005708DAE746EA064613F1400F4FEA1646BE
:100EB0001FDD13F1200FDFBF16430A460021203348
:100EC0005B42C8D0C3F1200746EA064602FA07F79C
:100ED0004FEA164646EA0706C3F1200722FA03F254
:100EE00001FA07F721FA03F14FF0000342EA070283
:100EF000B1E746EA020646EA06464FEA164646EAE1
:100F00000106BCBF46EA0646360C4FF000034FF020
:100F100000024FF000019EE72DE9C048934630B42F
:100F200091E8380007C831EA400C48BF34EA430C66
:100F300003D5FFF7F2FDFFF78CFFF0BCBDE800889A
:100F40002DE9C048934630B491E8380007C810F046
:100F5000804F08BF13F0804F03D100F005F8FFF772
:100F600078FFF0BCBDE8008820F07F4780EA0300EE
:100F700023F07F4C07EB0C03A3F57C5300F00040FB
:100F8000A3F1FE0392F0000F00F0B38095F0000F84
:100F900000F077802DE901494FEA11404FEA1446ED
:100FA00021EA004800FB06FC24EA064708FB06F697
:100FB00007FB08F800FB07F718EB06484CEB164C4C
:100FC0004FEA124B18EB07484FEA15464CEB174017
:100FD00022EA0B4E0BFB06FC25EA06470EFB06F643
:100FE00007FB0EFE0BFB07F71EEB064E4CEB164CF9
:100FF0004FF000061EEB074E4CEB174B18EB0B089F
:1010000040F1000018EB0E0B58EB000840F1000017
:101010008F1A4FF000013CBFC943661B14BFB5EBEC
:10102000040C00213CBFC943F61B4FEA17444EEAAB
:101030008E0E27EA04454FEA1C4704FB07622CEAA0
:10104000074C05FB07F70CFB05F604FB0CFC16EB45
:10105000074642EB174216EB0C4642EB1C421BEBD9
:10106000060658EB0202414146EA9E0601D5BDE85C
:101070000189B619524141EB0101A3F10103BDE819
:1010800001894FEA14454FEA114724EA054621EA4F
:10109000074C05FB07F406FB07F70CFB06F105FB05
:1010A0000CFC11EB074144EB17444FEA124711EBDC
:1010B0000C4144EB1C4422EA074C05FB07F206FBFB
:1010C00007F70CFB06F605FB0CFC16EB074642EB9C
:1010D000174216EB0C4642EB1C456A1854F100010E
:1010E00048BF7047B619524141EB0101A3F101031A
:1010F000704795F0000F37D04FEA11424FEA14477E
:1011000021EA024624EA074C02FB07F106FB07F737
:101110000CFB06F402FB0CFC14EB074441EB1741FB
:101120004FEA154714EB0C4441EB1C4125EA074CF0
:1011300002FB07F506FB07F70CFB06F602FB0CFCAF
:1011400016EB074645EB174516EB0C4645EB1C42E4
:10115000121951F1000148BF7047B619524141EBD5
:101160000101A3F1010370474FEA14454FEA11470B
:1011700024EA054621EA074C05FB07F106FB07F7C1
:101180000CFB06F24FF0000605FB0CFC12EB0742CD
:1011900041EB174112EB0C4251EB1C4148BF704729
:1011A000921841EB0101A3F1010370473EB52820DD
:1011B00000F0CAF94FF0FF34012301AA7021094859
:1011C000009400F08DFB9DF80400000709D406A0F0
:1011D00003230068029002AA70210094014800F0E5
:1011E000A7FC3EBD10000020BE0800007FB50546EC
:1011F00024A00C4600684FF0FF360390032303AA97
:1012000070210096204800F093FC4B2000F09CF9E0
:10121000062301AA70211C48009600F061FB9DF88E
:10122000040000062CD49DF807009DF80610000964
:1012300000EB01109DF8051000EB013001F05EFF9E
:10124000124901F06FFF6FF01306314602F0DFF82C
:1012500020609DF807009DF808100007000B00EBC8
:1012600001209DF80910084401F048FF084901F0E9
:1012700059FF314602F0CBF8064902F01FF828600A
:101280007FBD0000AC330000100000200000C84209
:101290000000484300004842FEE70000014800F01B
:1012A0007BB80000A8000020014800F075B80000DD
:1012B00064000020704772B6FEE710B590F8211068
:1012C0000022022905D00421816380F8202001201A
:1012D00010BD01680B6823F00E030B6001680B68FA
:1012E00023F001030B6090F84030C46B012101FA38
:1012F00003F3636080F8211080F82020104610BDB1
:1013000010B590F821100024022903D00421816334
:1013100001243DE001680A6822F00E020A600168BB
:101320000A6822F001020A601A4A0168914201D15A
:10133000012121E0174A1432914201D110211BE012
:10134000144A2832914201D1891515E0114A3C32E4
:10135000914201D189140FE00E4A5032914202D1DC
:101360004FF4803108E00B4A6432914202D14FF4CD
:10137000801101E04FF08071064A083A5160012166
:1013800080F82110002180F82010416B01B18847BE
:10139000204610BD080002402DE9F05FC16B0C68CB
:1013A00001680B68D0F840C0042202FA0CF2494DE3
:1013B000DFF824A1494E4A4FDFF828B1DFF828E1D1
:1013C00022422CD05A072AD50A68920603D40A680A
:1013D00022F004020A600168A94201D1042219E046
:1013E000514501D1402215E0B14202D14FF4806253
:1013F00010E0B94202D14FF480420BE0594502D1CE
:101400004FF4802206E0714502D14FF4800201E0E2
:101410004FF080622F4908394A60C16A3BE04FF0C3
:10142000020808FA0CF818EA040F4FF000094FF010
:10143000010235D05FEA837832D50B689B0605D46C
:101440000B6823F00A030B6080F821200168A94291
:1014500001D1022219E0514501D1202215E0B1420B
:1014600002D14FF4007210E0B94202D14FF40052A1
:101470000BE0594502D14FF4003206E0714502D12C
:101480004FF4001201E04FF00072124908394A602F
:1014900080F82090816A00291AD0BDE8F05F0847E3
:1014A000082505FA0CF5254212D01B0710D50B684C
:1014B00023F00E030B6090F84010C36B02FA01F1A9
:1014C0005960826380F8212080F82090016BE2E768
:1014D000BDE8F09F080002401C00024030000240BE
:1014E00044000240580002406C00024030B528B36E
:1014F00008C8134914221944B1FBF2F18900C163F1
:1015000010498163022141771A6843F6F0718A43DA
:10151000D0E900142143D0E902452C43214304695A
:101520002143446921438469214311431960002107
:101530004163012242770177084630BD012030BD6A
:10154000F8FFFDBF0000024070B5044600F0FEF851
:101550000546601C02D004480078044400F0F6F808
:10156000401BA042FAD370BD000000202DE9F84FC7
:10157000DFF8B8910024A9F1040B23460F2709F1E5
:10158000040AABF1040EC9E00125A5402A40AA4295
:101590007DD1674ED1F804C0ACEB0608B44532D01B
:1015A00014DCBCF1030F3AD009DCBCF1000F2AD0E7
:1015B000BCF1010F1CD0BCF1020F31D11DE0BCF118
:1015C000110F17D0BCF1120F2AD119E0B8F5881FFE
:1015D00019D006DCB8F5803F15D0B8F5801F1FD1B3
:1015E00011E0B8F5001F0ED0B8F5041F18D10AE0BD
:1015F000CB6815E0CB681B1D12E0CB6808330FE009
:10160000CB680C330CE08B682BB1012B4FF0080337
:1016100003D0456104E0042302E0056100E00023FB
:10162000FF2A01D8064601E000F104064FEA8405CE
:1016300001D9A5F12005D6F8008007FA05FC28EAB3
:101640000C0803FA05F548EA0508C6F800804D685D
:10165000ED0062D5374DAE6946F00106AE61AD6969
:1016600024F0030605F001050095334D06EB050C4B
:10167000DCF80850A607360F07FA06F825EA080531
:10168000DFF8B880404503D14FF0000817E044E090
:10169000DFF8AC80404502D14FF001080FE0DFF8E1
:1016A000A480404502D14FF0020808E0DFF898809E
:1016B000404502D14FF0030801E04FF0040808FA5A
:1016C00006F848EA0508CCF808804D68D9F80060AB
:1016D000ED024D4601D5164300E096432E604D685D
:1016E000DAF80060AD02554601D5164300E0964396
:1016F0002E604D68DBF80060AD035D4601D51643F2
:1017000000E096432E604D68DEF80060ED037546FC
:1017100001D5164300E096432E60641C0D682A46EE
:10172000E5407FF431AFBDE8F88F000008040140C8
:1017300000001110001002400000014000080140AC
:10174000000C014000100140001401400148806875
:10175000704700000000002070B5040025D094F808
:101760003D00002520B984F83C50204600F076FA70
:10177000242084F83D002068016821F00101016007
:101780002068016841F4004101602068016821F48B
:101790000041016000F0ECFB4D4A6168914201D8C4
:1017A0004C4900E04C49884201D2012070BD4B49B0
:1017B0002368B0FBF1F15E6826F03F060E435E60E1
:1017C0006368934206D94FF4967359434FF47A7382
:1017D000B1FBF3F12368491C1E6A26F03F06314332
:1017E00019626168914210D84900401EB0FBF1F2C5
:1017F000521CC2F30B02042A01D2042022E0B0FBE7
:10180000F1F0401CC0F30B001CE0A268F2B301EB46
:10181000C10303EB0116431EB3FBF6F35B1C43F459
:1018200080431B0549D092B301EBC10202EB0111C9
:10183000401EB0FBF1F0401CC0F30B0040F48040B0
:1018400040F400402168CA694CF6FF739A43104384
:10185000C861D4E9071001432068026822F0C00281
:1018600011430160D4E9030101432068826848F212
:10187000FF339A4311438160D4E90501084321688D
:10188000CA6822F0FF021043C86001E00EE016E0D3
:101890002068016841F0010101602564202084F87E
:1018A0003D00256384F83E50002070BD01EB4106E9
:1018B000431EB3FBF6F35B1CB3E70120C2E701EB69
:1018C0004101401EB0FBF1F0401CC0F30B00B7E734
:1018D000A086010080841E0000093D0040420F00E8
:1018E0002DE9F84F0025DDF82890984617468A46DE
:1018F00004460095FFF72AFF064694F83D0020288D
:101900007AD11923012286492046009601F01CF85D
:101910000028F5D194F83C0001286DD0012084F80E
:101920003C0020680168C90703D1016841F001014A
:1019300001602068016821F400610160222084F8C0
:101940003D00102084F83E0025646762A4F82A80D8
:10195000608D20857348E06233464A4651462046F2
:1019600000F002FF00287CD1208DDFF8BC81202709
:1019700068B1012814D00228206801681ED041F403
:10198000806101602068416980690090BBE0206847
:10199000416981690091016841F400710160B2E020
:1019A0002068016821F48061016072B62068416995
:1019B00081690091016841F400710AE041F400611D
:1019C000016072B62068416981690091016821F463
:1019D0008061016062B696E0032865D801280CD0CA
:1019E00002284B464FF000024146204600960BD09D
:1019F00000F0AAFFA8BB0CE090E032464946204622
:101A000001F048F868BB71E000F09EFF48BB72B679
:101A100033E02068016821F48061016072B62068BB
:101A20000069616A0870606A401C6062208D401E17
:101A30002085608D401E60853C4846F2A8110068F4
:101A4000B0FBF1F0C0EBC00000EB80000090401E46
:101A5000009007D020684069C04340070DD500982A
:101A6000F5E727E044F8305F6773A573206940F01D
:101A70002000206162B625731CE02068016841F4F3
:101A80000071016020680069616A0870606A401C2A
:101A90006062218D491E2185618D491E618562B676
:101AA00021680969017025E032464946204600F068
:101AB000F1FF10B10120BDE8F88F20680069616A6C
:101AC0000870606A401C6062208D401E81B22185D2
:101AD000608D401E608520684269D243520712D44F
:101AE000032903D1016821F4806101602068006945
:101AF000616A0870606A401C6062208D401E20850B
:101B0000608D401E6085208D00287FF465AF84F8CD
:101B10003D7084F83E5084F83C50CCE70220CAE780
:101B2000020010000000FFFF040001000C00002074
:101B30002DE9F84F1F4690468A460446DDF8289066
:101B4000FFF704FE054694F83D0020287FD11923B5
:101B5000012240492046009500F0F6FE002876D18B
:101B600094F83C00012872D0012084F83C002068E1
:101B70000168C90703D1016841F0010101602068D3
:101B8000016821F400610160212084F83D001020EB
:101B900084F83E0000262664C4F824806785608DA2
:101BA00020852D48E0622B464A465146204600F0EB
:101BB00051FE90B9206841698069009036E02A465C
:101BC0004946204600F09EFF50B1206C042804D105
:101BD0002068016841F4007101600120BDE8F88FC0
:101BE000606A216800780861606A401C6062618DEB
:101BF000491E6185218D491E89B22185226853695C
:101C0000DB435B070BD451B100781061606A401C64
:101C10006062608D401E6085208D401E20852A46B2
:101C20004946204600F064FE0028CED1208D0028D1
:101C3000C5D154F83D0B016841F4007101602020CA
:101C400004F81E09E67766770020C7E7FFE7022061
:101C5000C4E70000020010000000FFFFF0B585B0EF
:101C600000240646009401940294039400682449D9
:101C7000884242D1234DA86940F00800A861A869B4
:101C8000694600F008000490C020009012200190E6
:101C9000032003901C48FFF769FCE86940F400103A
:101CA000E861E8691A4D00F4001004901748C5E98E
:101CB00000048027C5E902472C616C61AC612846AD
:101CC000EC61FFF713FC08B1FFF7F5FAB5636E623C
:101CD0000F4D0E484435143801C5102091C50C48ED
:101CE00045F8104944306C61AC61EC61FFF7FEFBD4
:101CF00008B1FFF7E0FA75636E6205B0F0BD000051
:101D00000054004000100240000C014080000240DE
:101D100064000020024881680278114481607047A5
:101D200000000020074810B5016841F01001016073
:101D3000032000F075F80F2000F006F800F024F8FA
:101D4000002010BD0020024070B50D4D04464FF438
:101D50007A712878B1FBF0F00A490968B1FBF0F01C
:101D600000F0DCFA48B9102C07D200222146501EA0
:101D700000F036F800206C6070BD012070BD0000DE
:101D8000000000200C0000200C4808B5816941F0DB
:101D900001018161816901F001010091C16941F096
:101DA0008051C161C06900F08050009004484168D2
:101DB00021F0E06141F00071416008BD0010024077
:101DC00000000140002809DB00F01F0201219140C2
:101DD0004009800000F1E020C0F8001170470000C9
:101DE000F0B40E4B1B680C46C3F30223C3F1070586
:101DF000042D00D90425191D072901D2002300E074
:101E0000DB1E012606FA05F1491E214099409E403D
:101E1000761E16403143F0BC01F06DB80CED00E0C9
:101E2000064900F0070208684FF6FF03184040EA31
:101E30000220034A10430860704700000CED00E0E8
:101E40000000FA052DE9F0470F46050061D0434E2A
:101E5000306800F00700B84209D2306820F007006F
:101E600038433060306800F00700B84251D128682C
:101E70003B4C810712D5400703D5606840F4E06011
:101E800060602878000703D5606840F460506060A7
:101E90006068A96820F0F000084360602878C007F7
:101EA00028D06868012810D02168022810D089073E
:101EB00000292EDA616821F0030101436160FFF718
:101EC00045FC804641F288390DE021688903EFE73F
:101ED0008901EDE7FFF73AFCA0EB0801494502D97B
:101EE0000320BDE8F0876068696800F00C00B0EB83
:101EF000810FEFD1306800F00700B8420BD930688D
:101F000020F0070038433060306800F00700B84226
:101F100001D00120E5E72878400705D56068E96829
:101F200020F4E060084360602878000706D5606808
:101F3000296920F4605040EAC100606000F038F880
:101F40006168084AC1F30311515CC8400649086042
:101F500006480068FFF7F8FE0020C2E700200240B4
:101F6000001002409C3400080C00002004000020F7
:101F70000448054900684968044AC1F30221515CDC
:101F8000C84070470C00002000100240AC3400082C
:101F90000448054900684968044AC1F3C221515CFC
:101FA000C84070470C00002000100240AC3400080C
:101FB0000E4A51680E4801F00C03042B11D0082B77
:101FC0000FD10C48C1F38343C903C05C0AD55168E3
:101FD000084AC1F34041921E515C054A5043B0FB90
:101FE000F1F0704704494843704700000010024078
:101FF00000127A008C34000800093D002DE9F84FEA
:10200000040070D02078C04DC00749D06868C0F384
:102010008100012807D06868C0F38100022809D137
:102020006868C00306D52868800339D56068002831
:10203000E7D035E06068B0F5803F0BD010B1B0F567
:10204000A02F11D0286820F480302860286820F460
:10205000802002E0286840F480302860606890B1F9
:10206000FFF774FB06460AE0286840F480202860E9
:10207000F0E700BFFFF76AFB801B642873D828686D
:102080008003F7D50CE0FFF761FB064605E000BFD3
:10209000FFF75CFB801B6428F0D828688003F7D426
:1020A00020789A4E80074FF001094FF0000839D58B
:1020B000686810F00C0F07D06868C0F38100022830
:1020C00009D16868C00306D42868800714D5206940
:1020D000012808D110E02069B0B1C6F80090FFF7E0
:1020E00035FB074605E00AE1FFF730FBC01B02287D
:1020F000C4D828688007F7D52868616920F0F800FF
:1021000040EAC10028600DE0C6F80080FFF71EFB22
:10211000074604E0FFF71AFBC01B022823D82868F3
:102120008007F7D4207800072CD57948A169D9B168
:10213000C0F80090FFF70AFB074604E0FFF706FB34
:10214000C01B02280FD8686A8007F7D571484FF482
:10215000FA510068B0FBF1F0009000BF0098411EFA
:102160000091FAD20EE080E0C0F80080FFF7EEFAAE
:10217000074604E0FFF7EAFAC01B022875D8686A30
:102180008007F7D42078400760D5E8690027C000B1
:1021900008D4E86940F08050E861E869012700F060
:1021A000805000905C480168C90513D401688346DB
:1021B00041F480710160FFF7C9FA824606E000BF72
:1021C000FFF7C4FAA0EB0A0064284ED8DBF8000041
:1021D000C005F5D5E06801280AD008B1052813D05C
:1021E000286A20F001002862286A20F0040002E03A
:1021F000286A40F001002862E06841F2883B98B10B
:10220000FFF7A4FA82460BE0286A40F00400286237
:10221000EEE700BFFFF79AFAA0EB0A0159455AD83A
:10222000286A8007F6D50CE0FFF790FA824605E0B1
:10223000FFF78CFAA0EB0A0159454CD8286A8007B1
:10224000F6D41FB1E86920F08050E861E06988B3F6
:102250006968C1F38101022944D00228C6F8608070
:1022600004D0FFF773FA044638E034E0FFF76EFA63
:10227000074604E0FFF76AFAC01B02282BD828683B
:102280008001F7D4206AB0F5803F05D16868A16865
:1022900020F4003008436860D4E908010843696805
:1022A00021F4741108436860C6F86090FFF74EFA95
:1022B000044606E025E000BFFFF748FA001B0228AD
:1022C00009D828688001F7D51BE000BFFFF73EFA68
:1022D000001B022802D90320BDE8F88F286880017E
:1022E000F4D40EE00128F7D06868226A00F4803147
:1022F000914204D1616A00F47010884201D001203B
:10230000EAE70020E8E70000001002400000424237
:10231000800442420C0000200070004010B5401EB6
:10232000B0F1807F01D3012010BD4FF0E024606147
:102330000F21601700F0DFFD0020A0610720206161
:10234000002010BD70477047F8B501680446086862
:10235000CA684B6910F00F0F4FF000055AD003F018
:10236000010602F49077374365D0C10705D0D10547
:1023700003D5616C41F001016164410705D5D907BE
:1023800003D0616C41F002016164810705D5D90772
:1023900003D0616C41F004016164010707D502F0CC
:1023A0002001314303D0616C41F008016164616C2C
:1023B00000293BD0800604D5900602D5204600F0C7
:1023C00085FC20684069616CC0F3801001F0080151
:1023D000014320462BD000F052FC206840694006A3
:1023E00021D52068143050E8001F21F0400140E85A
:1023F0000012002AF5D1E06BA8B16D494163E06B92
:10240000FEF77EFF002811D0E06B416B01B0BDE804
:10241000F040084783060ED593060CD52046BDE84C
:10242000F84000F053BC2046FFF78DFFF8BDFFF7E2
:102430008AFF6564F8BD266B2023012E7CD1C60679
:102440007AD5D60678D508684868009048694FF074
:102450000206400640D5E16B086840680004000CA5
:10246000E8D0A28D8242E5D9E085886920282DD068
:1024700020680C3050E8001F21F4807140E8001201
:10248000002AF5D12168143151E8000F20F0010035
:1024900041E80002002AF5D12068143050E8001FFE
:1024A00021F0400140E80012002AF5D184F84230C2
:1024B000256320680C3050E8001F21F0100140E82F
:1024C0000012002AF5D1E06BFEF7F7FE6663A08DDF
:1024D000E18D401A81B22AE0A08DE18D401A81B2CF
:1024E000E08D0028A6D00029A4D022680C3252E842
:1024F000000F20F4907042E80007002FF5D120680B
:10250000143050E8002F22F0010240E80027002F8D
:10251000F5D184F84230256320680C3050E8002F54
:1025200022F0100240E80023002BF5D1666320461C
:10253000FFF708FFF8BDFFE705062BD5150629D5DF
:1025400094F841002128F5D1A068B0F5805F01D151
:102550002069B0B1206A411C21622168007848607E
:10256000E08C401E0004000CE084E3D12068C168C8
:1025700021F08001C1602068C16841F04001C16064
:10258000D8E7206A0088C0F308004860206A801CF1
:102590002062E5E74006CDD55006CBD5CA68204677
:1025A00022F04002CA6084F8413000F0C3F8C1E76D
:1025B0006F2C000870B5040004D094F84100002589
:1025C00010B106E0012070BD84F84050204600F0B4
:1025D00023F8242084F841002068C16821F40051C8
:1025E000C160204600F0D4FB2068016921F49041CD
:1025F00001612068416921F02A0141612068C168B8
:1026000041F40051C1606564202084F8410084F8E1
:1026100042006563002070BD30B585B00024009491
:102620000194029403940068184988422CD11848F8
:10263000816941F480418161816901F480410491A3
:10264000816941F0040181618069124D00F004004C
:1026500004904FF40070009002200190032003903A
:1026600069462846FEF782FF2815CDE90004694631
:1026700028460294FEF77AFF002211462520FFF734
:10268000AFFB2520FFF79EFB05B030BD00380140B1
:10269000001002400008014070472DE9F84304464D
:1026A00090F841001F4616460D46202802D0022011
:1026B000BDE8F8837DB176B100206064212084F804
:1026C0004100FFF743F8A6848046E684A068B0F591
:1026D000805F02D003E00120EAE7206910B12E46B6
:1026E00000250EE000260CE08021204600F0ACFB27
:1026F000A0B9AEB116F8010B21684860E08C401E0D
:10270000E084E08C43464FF0000200970028EBD1B4
:102710004FF04001204600F097FB30B10320C7E79F
:1027200035F8020BC0F30800E6E7202084F84100EA
:102730000020BDE77047FEE701684A69D2435205B1
:102740000FD46FF480624A61002140F8301F2022CC
:1027500042738173026942F0040202610173012035
:1027600070470020704700002DE9F84F0446C06A0A
:102770001E4693460D4621680A6842F480620A604C
:10278000082807D0012805D010F5803F02D0206B23
:10279000112804D12068016841F4807101604FF074
:1027A00001195B46002249462046009600F0CCF80D
:1027B0004FF4007840B120680068C00501D5C4F826
:1027C00040800320BDE8F88F2069DFF884A0B0F5D1
:1027D000804F0FD00620216800EAD51747F0F0009F
:1027E000086133465A460AF10601204600F0F4F823
:1027F00058BB03E0E8B240F001001CE02168E8B2F9
:10280000086133465A465146204600F0E5F8E0B9E3
:102810002068416981690091016841F4807101601B
:102820005B46002249462046009600F08DF80028BD
:10283000C1D147F0F1002168086133465A4651463C
:10284000204600F0C9F80028BCD00120BAE70000FB
:1028500002000100F8B50446C06A1E460D46174640
:10286000082807D0012805D010F5803F02D0206B42
:10287000122804D12068016841F480710160134678
:1028800000224FF001112046009600F05DF840B1A3
:1028900020680068C00502D54FF400702064032052
:1028A000F8BD2069B0F5804F0ED00620216800EAFF
:1028B000D51040F0F000086133463A460B492046F7
:1028C00000F08AF878B902E005F0FE0000E0E8B216
:1028D00021680861054933463A46891F204600F0C1
:1028E0007BF80028DCD00120F8BD000008000100C2
:1028F00070B516460D4604461EE02046FFF71CFF45
:1029000008B1012070BD681C16D0FEF71FFF801BA8
:10291000A84200D885B920684069C04340070BD55C
:10292000002044F8300F20216173A073216941F029
:10293000200121612073E4E720684069C04340071B
:10294000DBD4002070BD00002DE9F0479846174603
:102950000D460446C1F30746DDF820902AE000BF8B
:10296000B8F1FF3F26D0FEF7F1FEA0EB090141458B
:1029700002D8B8F1000F1DD12068012E16D0806951
:1029800025EA00000004000C12D00020B84211D14A
:10299000002044F8300F20216173A073216941F0B9
:1029A0002001216120730120BDE8F0874069E7E73D
:1029B0000120EBE72068012E0AD0806925EA00009B
:1029C0000004000C06D00020B842C9D00020EBE77C
:1029D0004069F3E70120F7E72DE9F04798461646EE
:1029E0000D4604464FF000094FF0200AC1F3074797
:1029F00023E020684069C043400515D42068016881
:102A000041F40071016021686FF480604861C4F88E
:102A1000309084F83DA084F83E90216C41F0040190
:102A2000216484F83C9021E0701C06D0FEF78EFEF5
:102A3000A0EB0800B04203D816B1012F1FD021E04F
:102A40002068012F15D0806925EA00000004000CE1
:102A500018D000BF44F8309F84F80DA084F80E9081
:102A6000216941F02001216184F80C900120BDE82A
:102A7000F087406925EA00000004000CEAD12068D4
:102A8000406901E02068806925EA00000004000C2C
:102A9000AFD1ECE72DE9F041002590460E46044603
:102AA000202728E04069C043C0060CD454F8301BEE
:102AB0006FF01000486144F810596777A577206AD5
:102AC0002062257714E0FEF741FEA0EB0800B0423B
:102AD00000D886B920684069C04340060BD544F849
:102AE000305F6773A573206940F020002061257373
:102AF0000120BDE8F08120684169C9434906D1D46D
:102B00000020F6E770B516460D4604461EE0204646
:102B1000FFF712FE08B1012070BD681C16D0FEF749
:102B200015FE801BA84200D885B920684069C043C3
:102B300000060BD5002044F8300F20216173A073EC
:102B4000216941F0200121612073E4E72068406998
:102B5000C0430006DBD4002070BD00000D4808B55E
:102B6000816941F020018161816901F020010091BA
:102B7000816941F004018161816901F004010091E2
:102B8000816941F008018161806900F008000090CE
:102B900008BD0000001002400D4810B50B4901604F
:102BA0000C49416000214FF480428160C0E903126A
:102BB00041618161C1610162FEF7CEFD002803D051
:102BC000BDE81040FEF777BB10BD00000054004088
:102BD00010000020A08601000C4810B50A490160D1
:102BE0004FF4E1314160002181600C22C160C0E9F5
:102BF00004128161C161FFF7DDFC002803D0BDE84C
:102C00001040FEF758BB10BD00380140EC0000201A
:102C1000FEE7FEE770477047FFF77CB810B590B04D
:102C200028216846FDF743FB14210AA8FDF73FFB66
:102C300002200090012004901020002405900794A9
:102C40006846FFF7DBF908B172B6FEE70F20CDE961
:102C50000A040C940D9400210AA80E94FFF7F2F8D0
:102C6000002801D072B6FEE710B010BD704710B555
:102C7000406A0021C185C184FFF765FB10BD016872
:102C80000C3151E8002F22F4907241E80023002B10
:102C9000F5D10168143151E8002F22F0010241E81A
:102CA0000023002BF5D1016B012909D101680C31FA
:102CB00051E8002F22F0100241E80023002BF5D14B
:102CC000202180F8421000210163704708B590F878
:102CD0004210222901D0022008BD82684FF480539F
:102CE0009A4201D1016921B1816A9A421BD04AB14D
:102CF0000AE00268816A5268C2F308020A80816AA7
:102D0000891C08E0026972B10268526802F07F0211
:102D10000A70816A491C8162C18D491E0904090C2F
:102D2000C18503D01BE002685268F1E70168CA68F8
:102D300022F02002CA600168CA6822F48072CA6068
:102D400001684A6922F001024A61202180F842109C
:102D500000214163026B012A03D0FFF79DFC002094
:102D600008BD016301680C3151E8002F22F0100208
:102D700041E80023002BF5D101680A68D20602D58C
:102D80000A6849680091818DFFF7DCFAE7E70000E7
:102D900070B5044600680169E26821F440511143AE
:102DA00001612169A0680843616908432168CA6814
:102DB00041F20C639A430243CA6020684169A269E8
:102DC00021F44071114341611E492068884202D1BB
:102DD000FFF7DEF801E0FFF7CBF800EBC00101EBF5
:102DE0000012606864218000B2FBF0F3B3FBF1F3E2
:102DF0006FF018067343B2FBF0F5B2FBF0F605EB8B
:102E00008305322303EB0515B5FBF1F5B6FBF1F6AF
:102E100005F0F00505EB0615B2FBF0F6B2FBF0F09D
:102E2000B0FBF1F06FF01802504306EB800003EBAB
:102E30000010B0FBF1F0216800F00F00284488601A
:102E400070BD0000003801402DE9F041984617465A
:102E50000E460446069D27E0681C25D02DB1FEF7DE
:102E600075FCA0EB0800A8421ED920680C3050E881
:102E7000001F21F4D07140E80012002AF5D120682B
:102E8000143050E8001F21F0010140E80012002A30
:102E9000F5D1202084F8410084F84200002084F815
:102EA00040000320BDE8F0812068006836EA000099
:102EB00004D00020B842CFD00020F3E70120F9E78A
:102EC0000148FFF741BA0000EC000020FEE749008E
:102ED00050EAC12018BF04204A0D18BF40F001007D
:102EE00040F2FF72B2EB515F08BF40F002000128D0
:102EF00008BF052070470907090E002804DB00F110
:102F0000E02080F80014704700F00F0000F1E0208E
:102F100080F8141D7047000092B0FEF703FFFFF722
:102F20007DFEFFF71BFEFFF737FEFFF755FEFEF7AE
:102F30003DF94FF0FF364FF47A7710A90FA8FEF74E
:102F400055F9109800F046F804460D460F9800F029
:102F500041F802460B4609A102A8CDE90045FDF75C
:102F60003FF902A8FDF784F982B2334602A90A4864
:102F7000FFF793FB3846FEF7E7FADEE7CEC2B6C8A6
:102F80003A202566A1E6202C20CAAAB6C83A2025F8
:102F9000662E0D0A00000000EC00002010B500298C
:102FA0000AD00878002807D005487844FDF7FCFCD3
:102FB000002801D0002010BD0248784410BD000058
:102FC000BE050000B60500000808A0F500114FEA94
:102FD0003101704743004FEAD30C4FEA3C0C4340A9
:102FE0001FBF40070CF1605113F0FE4F70471CF0FB
:102FF000006F03D100200CF0004170470CF000433B
:1030000043EA507010B540EACC0000F00CF900BF64
:10301000000000924FEA0001FFF7D6BF4FF00041D9
:103020004FF00000A1F500217047000090EA010F69
:1030300048BF81F0004100F14881421A3CBF801A2C
:1030400089184FEAD0524FF07F4C1CEA410FA2EB97
:10305000D15318BF9CEA026F00F03B804FF0004C48
:103060004CEA00204CEA012121FA03FC10EB0C0C85
:103070001ED202F1FF325FEA1C2040EBC25038BF83
:1030800070471CF07F0F4FEA400C18BFBCF17F4F18
:1030900038BF7047C3F12003994008BF20F00100FA
:1030A000BCF17F4F38BF7047A0F1C04000F001B9BC
:1030B0004FEA3C00000A40EBC25028BF1CF0FF0F53
:1030C0004FEA400CE6D018BFBCF17F4F38BF7047C5
:1030D000EAE79CEA026F05D010EA5C0F08BF00F037
:1030E0000040704710B500F09EF800BF64FBBE3E84
:1030F000014800F05AB900BF0000C07FB0FA80F369
:1031000010FA03F2C3F19D030AD0D90501EB122096
:10311000530638BF704700F1010008BF20F00100DE
:10312000704700004FF47F0C1CEAD0121EBF1CEA4F
:10313000D11392EA0C0F93EA0C0F00F0478090EA4B
:10314000010F48BF42F480724FF0004C4CEA00205F
:103150004CEA012102EB0302A0FB0113A2F50002DD
:10316000002918BF43F001035B0028BF4FEA330377
:1031700042EB22425FEA132C4CEBC2502EBFBCEB59
:10318000436FB2F57C0F70474FEA036CBCF1004F00
:1031900008BF20F00100B2F57C0F38BF70470BD597
:1031A00082F0FF0212F5803FC8BF704700F1C040B7
:1031B000D8BF00F00040704700F5000C5FEA4C0CEF
:1031C00048BF7047B0F1C04000F073B890EA010FFB
:1031D0000CEAD11348BF42F48072624538BF6345A0
:1031E00004D280EA010000F00040704710B500F002
:1031F0001AF800BF8900013E00F007B800F009B8D6
:103200005FEA410C5FEA1C6C08D080EA010000F024
:1032100050B85FEA400C5FEA1C6CF6D14FF00040FA
:10322000A0F5800070470EF1020E2EF0030E5EF83E
:10323000044B244204D44FEA4102B2F17F4F11D82B
:103240004FEA4003B3F17F4F0CD80ED14FEAD07C48
:10325000B2F17F4F0CEB4C0C0CF1020C08BF4CEBA5
:10326000D17C04E04FF0080C01E04FEAD17C0CEB7C
:103270004C0324FA03F404F00704B4F1040C06D25E
:103280000EEB840CBDE810404CF0010C6047DFE809
:103290000CF0070802024FF00040A0F5800010BDBE
:1032A0000846420018BFD2F1807288BF00F000408B
:1032B00010BDFF2141EAD050C005704790EA010FD0
:1032C00048BF81F000413FF5B8AE421A04D882F001
:1032D0000042A0EB020011444FEAD0524FF07F4C65
:1032E0001CEA410FA2EBD15318BF9CEA026F4AD0EF
:1032F0004FF0004C4CEA00204CEA012121FA03FC7B
:10330000B0EB0C0C0FD412F0FE0F36D05FEA4C007D
:103310001DD5001240EBC25038BF70471CF03F0F64
:1033200018BF70470BE0A2F101025FEA1C2040EBDE
:10333000C25038BF70471CF07F0F18BF7047C3F1F1
:103340002003994014BF401E20F001007047800800
:103350004FEA122308BF7047B0FA80FCA2EB0C02C0
:10336000CCF1280C60FA0CF093EA122F04BF00EBAA
:10337000C25070474FEAC3707047130A5FEADC100F
:1033800008BF7047F6E79CEA026F04D010EA5C0FB2
:1033900008BF0020704710B5FFF745FF40DFF63E3D
:1033A00081F000407047FDF783B80CF00F03092B44
:1033B00008BF082000F051800A2B0BD0082B18BF43
:1033C000704708BF1CF0400F0AD04FF000004FF0CC
:1033D000000170471CF0400F18BF4FF000407047CD
:1033E0001CF0100F08D020F0704300F07F4242EA3A
:1033F000D3014FEA4370704700F0604021F07F42F4
:1034000042EA000201F07F4040EA727070474FF0DC
:10341000FF0212EAD0521CBF92F0FF038B42C2BFE0
:10342000D14200EBC1507047002A0AD0002B0BD0CC
:10343000002900F00040A4BF40F0FE4040F400002E
:10344000704700F00040704743024FF00B0C18BF6C
:103450004CF0806C7FF44CAE70471CF4801F11D090
:103460001CF4E02F03D06FEACC31490070474FF0D5
:103470004050EFF3008222F0704242EA000282F3F1
:10348000008870474FF000007047010202030405F6
:10349000060708090A0B0C0D0E0F101000000000A3
:1034A00000000000010203040607080900000000F4
:1034B0000102030402400000000000A00000000020
:1034C00005400000000000C8000000000C400000A3
:1034D0000000409C00000000194000000020BCBE1D
:1034E0000000000034400000BFC91B8E0000000433
:1034F000B5400000504BCFD06607E2CF010000007E
:103500006C4100003E8251AADFEEA73401000000AA
:10351000D9420000DCB5A0E23A301F97FFFFFFFF61
:10352000B4450000FD25A0C8E9A3C14FFFFFFFFF80
:10353000FF3F00000000008000000000FF3F00008F
:10354000000000800000000084350008000000201A
:103550001000000028010008943500081000002029
:1035600088070000440100081C0000004300000020
:10357000F8FFFFFF0C0000000E0000000F0000002D
:103580002E000000010000001000000000000000FC
:043590000024F4001F
:04000005080000ED02
:00000001FF
